{
    "_format": "hh-sol-artifact-1",
    "contractName": "Tasera",
    "sourceName": "contracts/Tasera.sol",
    "abi": [
        {
            "inputs": [
                {
                    "internalType": "address",
                    "name": "_uniV3Factory",
                    "type": "address"
                }
            ],
            "stateMutability": "nonpayable",
            "type": "constructor"
        },
        {
            "inputs": [
                {
                    "internalType": "address",
                    "name": "_token0",
                    "type": "address"
                },
                {
                    "internalType": "address",
                    "name": "_token1",
                    "type": "address"
                }
            ],
            "name": "doesPoolExist",
            "outputs": [
                {
                    "internalType": "bool",
                    "name": "",
                    "type": "bool"
                }
            ],
            "stateMutability": "view",
            "type": "function"
        },
        {
            "inputs": [
                {
                    "internalType": "address",
                    "name": "_fromToken",
                    "type": "address"
                },
                {
                    "internalType": "address",
                    "name": "_toToken",
                    "type": "address"
                },
                {
                    "internalType": "uint256",
                    "name": "_amount",
                    "type": "uint256"
                },
                {
                    "internalType": "uint24",
                    "name": "_poolFee",
                    "type": "uint24"
                }
            ],
            "name": "estimateMaxSwapUniswapV3",
            "outputs": [
                {
                    "internalType": "uint256",
                    "name": "",
                    "type": "uint256"
                }
            ],
            "stateMutability": "view",
            "type": "function"
        },
        {
            "inputs": [
                {
                    "internalType": "address",
                    "name": "_fromToken",
                    "type": "address"
                },
                {
                    "internalType": "address",
                    "name": "_toToken",
                    "type": "address"
                },
                {
                    "internalType": "uint256",
                    "name": "_amount",
                    "type": "uint256"
                },
                {
                    "internalType": "uint24",
                    "name": "_poolFee",
                    "type": "uint24"
                }
            ],
            "name": "estimateMinSwapUniswapV3",
            "outputs": [
                {
                    "internalType": "uint256",
                    "name": "",
                    "type": "uint256"
                }
            ],
            "stateMutability": "view",
            "type": "function"
        }
    ],
    "bytecode": "0x60806040523480156200001157600080fd5b506040516200450d3803806200450d8339818101604052810190620000379190620000e8565b806000806101000a81548173ffffffffffffffffffffffffffffffffffffffff021916908373ffffffffffffffffffffffffffffffffffffffff160217905550506200011a565b600080fd5b600073ffffffffffffffffffffffffffffffffffffffff82169050919050565b6000620000b08262000083565b9050919050565b620000c281620000a3565b8114620000ce57600080fd5b50565b600081519050620000e281620000b7565b92915050565b6000602082840312156200010157620001006200007e565b5b60006200011184828501620000d1565b91505092915050565b6143e3806200012a6000396000f3fe608060405234801561001057600080fd5b50600436106100415760003560e01c80632a8895ff14610046578063585b87ee1461007657806386ed50b1146100a6575b600080fd5b610060600480360381019061005b9190612f91565b6100d6565b60405161006d9190612fec565b60405180910390f35b610090600480360381019061008b9190613078565b610385565b60405161009d91906130ee565b60405180910390f35b6100c060048036038101906100bb9190613078565b61043f565b6040516100cd91906130ee565b60405180910390f35b60008060008054906101000a900473ffffffffffffffffffffffffffffffffffffffff1673ffffffffffffffffffffffffffffffffffffffff16631698ee8285856101f46040518463ffffffff1660e01b81526004016101389392919061315d565b602060405180830381865afa158015610155573d6000803e3d6000fd5b505050506040513d601f19601f8201168201806040525081019061017991906131a9565b9050600073ffffffffffffffffffffffffffffffffffffffff168173ffffffffffffffffffffffffffffffffffffffff16146101b957600191505061037f565b60008054906101000a900473ffffffffffffffffffffffffffffffffffffffff1673ffffffffffffffffffffffffffffffffffffffff16631698ee828585610bb86040518463ffffffff1660e01b815260040161021893929190613211565b602060405180830381865afa158015610235573d6000803e3d6000fd5b505050506040513d601f19601f8201168201806040525081019061025991906131a9565b9050600073ffffffffffffffffffffffffffffffffffffffff168173ffffffffffffffffffffffffffffffffffffffff161461029957600191505061037f565b60008054906101000a900473ffffffffffffffffffffffffffffffffffffffff1673ffffffffffffffffffffffffffffffffffffffff16631698ee8285856127106040518463ffffffff1660e01b81526004016102f893929190613283565b602060405180830381865afa158015610315573d6000803e3d6000fd5b505050506040513d601f19601f8201168201806040525081019061033991906131a9565b9050600073ffffffffffffffffffffffffffffffffffffffff168173ffffffffffffffffffffffffffffffffffffffff161461037957600191505061037f565b60009150505b92915050565b60008060008054906101000a900473ffffffffffffffffffffffffffffffffffffffff1673ffffffffffffffffffffffffffffffffffffffff16631698ee828787866040518463ffffffff1660e01b81526004016103e5939291906132c9565b602060405180830381865afa158015610402573d6000803e3d6000fd5b505050506040513d601f19601f8201168201806040525081019061042691906131a9565b9050610434858786846104f9565b915050949350505050565b60008060008054906101000a900473ffffffffffffffffffffffffffffffffffffffff1673ffffffffffffffffffffffffffffffffffffffff16631698ee828787866040518463ffffffff1660e01b815260040161049f939291906132c9565b602060405180830381865afa1580156104bc573d6000803e3d6000fd5b505050506040513d601f19601f820116820180604052508101906104e091906131a9565b90506104ee868686846105ca565b915050949350505050565b6000808473ffffffffffffffffffffffffffffffffffffffff168673ffffffffffffffffffffffffffffffffffffffff1611905060008061057985878561056057600173fffd8963efd1fc6a506488495d951d5263988d2661055b919061332f565b610573565b60016401000276a36105729190613363565b5b866106a4565b9150915082156105a3576000811361059a5780610595906133b7565b61059c565b805b93506105bf565b600082136105ba57816105b5906133b7565b6105bc565b815b93505b505050949350505050565b6000808473ffffffffffffffffffffffffffffffffffffffff168673ffffffffffffffffffffffffffffffffffffffff16119050600080610653858761060f906133b7565b8561063a57600173fffd8963efd1fc6a506488495d951d5263988d26610635919061332f565b61064d565b60016401000276a361064c9190613363565b5b866106a4565b91509150821561067d5760008213610674578161066f906133b7565b610676565b815b9350610699565b60008113610694578061068f906133b7565b610696565b805b93505b505050949350505050565b6000806000808613905060006106b98861075d565b90506000806000806106cd858c8c8c6109b1565b9250925092505b600083600001511415801561071557508973ffffffffffffffffffffffffffffffffffffffff168173ffffffffffffffffffffffffffffffffffffffff1614155b1561073b5761072a8c868584868f8f8d610b69565b8094508193508296505050506106d4565b610746838c8b610ed9565b809850819950505050505050505094509492505050565b610765612dfb565b600082905060008060008373ffffffffffffffffffffffffffffffffffffffff16633850c7bd6040518163ffffffff1660e01b815260040160e060405180830381865afa1580156107ba573d6000803e3d6000fd5b505050506040513d601f19601f820116820180604052508101906107de9190613504565b9650505050509250925060008473ffffffffffffffffffffffffffffffffffffffff16631a6865026040518163ffffffff1660e01b8152600401602060405180830381865afa158015610835573d6000803e3d6000fd5b505050506040513d601f19601f8201168201806040525081019061085991906135ee565b905060008773ffffffffffffffffffffffffffffffffffffffff1663d0c93a7c6040518163ffffffff1660e01b8152600401602060405180830381865afa1580156108a8573d6000803e3d6000fd5b505050506040513d601f19601f820116820180604052508101906108cc919061361b565b905060008873ffffffffffffffffffffffffffffffffffffffff1663ddca3f436040518163ffffffff1660e01b8152600401602060405180830381865afa15801561091b573d6000803e3d6000fd5b505050506040513d601f19601f8201168201806040525081019061093f919061365d565b90506040518060c001604052808773ffffffffffffffffffffffffffffffffffffffff1681526020018660020b81526020018360020b81526020018262ffffff168152602001846fffffffffffffffffffffffffffffffff168152602001851515815250975050505050505050919050565b6109b9612e66565b600080866080015191508660000151905083610a5257866000015173ffffffffffffffffffffffffffffffffffffffff168573ffffffffffffffffffffffffffffffffffffffff16118015610a4d575073fffd8963efd1fc6a506488495d951d5263988d2673ffffffffffffffffffffffffffffffffffffffff168573ffffffffffffffffffffffffffffffffffffffff16105b610ac2565b866000015173ffffffffffffffffffffffffffffffffffffffff168573ffffffffffffffffffffffffffffffffffffffff16108015610ac157506401000276a373ffffffffffffffffffffffffffffffffffffffff168573ffffffffffffffffffffffffffffffffffffffff16115b5b610b01576040517f08c379a0000000000000000000000000000000000000000000000000000000008152600401610af8906136e7565b60405180910390fd5b6040518060a0016040528087815260200160008152602001886000015173ffffffffffffffffffffffffffffffffffffffff168152602001886020015160020b815260200160006fffffffffffffffffffffffffffffffff1681525092509450945094915050565b6000806000610b76612ec0565b88816000019073ffffffffffffffffffffffffffffffffffffffff16908173ffffffffffffffffffffffffffffffffffffffff1681525050610bc28b604001518b606001518e89610f6d565b836020018460400182985083151515158152508360020b60020b815250505050610c6c8987610c1f578873ffffffffffffffffffffffffffffffffffffffff168673ffffffffffffffffffffffffffffffffffffffff1611610c4f565b8873ffffffffffffffffffffffffffffffffffffffff168673ffffffffffffffffffffffffffffffffffffffff16105b610c595785610c5b565b885b8a8d600001518f606001518b611136565b846080018560a0018660c001838152508381525083815250839650505050508415610cf657610cad8160c001518260800151610ca89190613707565b611406565b8a600001818151610cbe919061375d565b91508181525050610ce8610cd58260a00151611406565b8b6020015161143c90919063ffffffff16565b8a6020018181525050610d57565b610d038160a00151611406565b8a600001818151610d1491906137f1565b91508181525050610d4d610d3a8260c001518360800151610d359190613707565b611406565b8b6020015161146890919063ffffffff16565b8a60200181815250505b8373ffffffffffffffffffffffffffffffffffffffff168373ffffffffffffffffffffffffffffffffffffffff161415610e7757806040015115610e405760008c73ffffffffffffffffffffffffffffffffffffffff1663f30dba9383602001516040518263ffffffff1660e01b8152600401610dd49190613894565b61010060405180830381865afa158015610df2573d6000803e3d6000fd5b505050506040513d601f19601f82011682018060405250810190610e169190613972565b5050505050509150508615610e325780610e2f90613a28565b90505b610e3c8982611494565b9250505b85610e4f578060200151610e61565b60018160200151610e609190613a71565b5b8a6060019060020b908160020b81525050610eca565b806000015173ffffffffffffffffffffffffffffffffffffffff168373ffffffffffffffffffffffffffffffffffffffff1614610ec957610eb78361159f565b8a6060019060020b908160020b815250505b5b50985098509895505050505050565b6000806000841315610f275782610f04578460200151856000015185610eff919061375d565b610f1a565b846000015184610f14919061375d565b85602001515b8092508193505050610f65565b82610f4657846000015184610f3c919061375d565b8560200151610f5c565b8460200151856000015185610f5b919061375d565b5b80925081935050505b935093915050565b6000806000808787610f7f9190613b17565b905084610f95578080610f9190613b81565b9150505b60008760020b128015610fb7575060008888610fb19190613bad565b60020b14155b15610fcb578080610fc790613bde565b9150505b60008673ffffffffffffffffffffffffffffffffffffffff16635339c29660088460020b901d6040518263ffffffff1660e01b815260040161100d9190613c43565b602060405180830381865afa15801561102a573d6000803e3d6000fd5b505050506040513d601f19601f8201168201806040525081019061104e9190613c5e565b905061105c81898b8961199e565b80955081965050507ffffffffffffffffffffffffffffffffffffffffffffffffffffffffffff2761860020b8560020b12156110ba577ffffffffffffffffffffffffffffffffffffffffffffffffffffffffffff27618945061111f565b7ffffffffffffffffffffffffffffffffffffffffffffffffffffffffffff276186110e490613c8b565b60020b8560020b131561111e577ffffffffffffffffffffffffffffffffffffffffffffffffffffffffffff2761861111b90613c8b565b94505b5b61112885611b59565b925050509450945094915050565b6000806000808873ffffffffffffffffffffffffffffffffffffffff168a73ffffffffffffffffffffffffffffffffffffffff1610151515851515146111b1576040517f08c379a00000000000000000000000000000000000000000000000000000000081526004016111a890613d20565b60405180910390fd5b6000808812159050801561122f5760006111e28989620f42406111d49190613d40565b62ffffff16620f4240612025565b9050866111fb576111f68c8c8c60016121f0565b611209565b6112088b8d8c60016122dc565b5b945084811061121a578a9550611229565b6112268c8b838a61253b565b95505b50611287565b85611246576112418b8b8b60006122dc565b611254565b6112538a8c8b60006121f0565b5b92508288611261906133b7565b1061126e57899450611286565b6112838b8a8a61127d906133b7565b896125ad565b94505b5b60008573ffffffffffffffffffffffffffffffffffffffff168b73ffffffffffffffffffffffffffffffffffffffff16149050861561130e578080156112ca5750815b6112e0576112db868d8c60016122dc565b6112e2565b845b94508080156112ef575081155b61130557611300868d8c60006121f0565b611307565b835b9350611358565b8080156113185750815b61132e576113298c878c60016121f0565b611330565b845b945080801561133d575081155b6113535761134e8c878c60006122dc565b611355565b835b93505b8115801561136e57508861136b906133b7565b84115b15611380578861137d906133b7565b93505b8180156113b957508a73ffffffffffffffffffffffffffffffffffffffff168673ffffffffffffffffffffffffffffffffffffffff1614155b156113d15784896113ca9190613d74565b92506113f7565b6113f4858962ffffff168a620f42406113ea9190613d40565b62ffffff1661261f565b92505b50509650965096509692505050565b60007f8000000000000000000000000000000000000000000000000000000000000000821061143457600080fd5b819050919050565b6000808212151515838385611451919061375d565b925082131515151461146257600080fd5b92915050565b600080821215151583838561147d91906137f1565b925082121515151461148e57600080fd5b92915050565b60008082600f0b121561152357826fffffffffffffffffffffffffffffffff16826114be90613a28565b846114c99190613da8565b9150816fffffffffffffffffffffffffffffffff161061151e576040517f08c379a000000000000000000000000000000000000000000000000000000000815260040161151590613e28565b60405180910390fd5b611599565b826fffffffffffffffffffffffffffffffff1682846115429190613e48565b9150816fffffffffffffffffffffffffffffffff161015611598576040517f08c379a000000000000000000000000000000000000000000000000000000000815260040161158f90613eda565b60405180910390fd5b5b92915050565b60006401000276a373ffffffffffffffffffffffffffffffffffffffff168273ffffffffffffffffffffffffffffffffffffffff1610158015611621575073fffd8963efd1fc6a506488495d951d5263988d2673ffffffffffffffffffffffffffffffffffffffff168273ffffffffffffffffffffffffffffffffffffffff16105b611660576040517f08c379a000000000000000000000000000000000000000000000000000000000815260040161165790613f46565b60405180910390fd5b600060208373ffffffffffffffffffffffffffffffffffffffff16901b9050600081905060006fffffffffffffffffffffffffffffffff821160071b808217915082811c92505067ffffffffffffffff821160061b808217915082811c92505063ffffffff821160051b808217915082811c92505061ffff821160041b808217915082811c92505060ff821160031b808217915082811c925050600f821160021b808217915082811c9250506003821160011b808217915082811c925050600182118082179150506080811061174757607f8161173d9190613d74565b83901c915061175a565b80607f6117549190613d74565b83901b91505b6000604060808361176b919061375d565b901b9050828302607f1c92508260801c80603f1b8217915083811c935050828302607f1c92508260801c80603e1b8217915083811c935050828302607f1c92508260801c80603d1b8217915083811c935050828302607f1c92508260801c80603c1b8217915083811c935050828302607f1c92508260801c80603b1b8217915083811c935050828302607f1c92508260801c80603a1b8217915083811c935050828302607f1c92508260801c8060391b8217915083811c935050828302607f1c92508260801c8060381b8217915083811c935050828302607f1c92508260801c8060371b8217915083811c935050828302607f1c92508260801c8060361b8217915083811c935050828302607f1c92508260801c8060351b8217915083811c935050828302607f1c92508260801c8060341b8217915083811c935050828302607f1c92508260801c8060331b8217915083811c935050828302607f1c92508260801c8060321b82179150506000693627a301d71055774c85826118ee9190613f66565b9050600060806f028f6481ab7f045a5af012a19d003aaa83611910919061375d565b901d9050600060806fdb2df09e81959a81455e260799a0632f8461193491906137f1565b901d90508060020b8260020b1461198e578873ffffffffffffffffffffffffffffffffffffffff1661196582611b59565b73ffffffffffffffffffffffffffffffffffffffff1611156119875781611989565b805b611990565b815b975050505050505050919050565b600080600084866119af9190613b17565b905060008660020b1280156119d35750600085876119cd9190613bad565b60020b14155b156119e75780806119e390613bde565b9150505b8315611a925760006119f88261268a565b91505060008160ff166001901b60018360ff166001901b611a199190613d74565b611a239190613707565b90506000818a1690506000811415945084611a5757878360ff1685611a489190613a71565b611a52919061407d565b611a88565b87611a61826126ac565b60ff168460ff16611a729190613d40565b85611a7d9190613a71565b611a87919061407d565b5b9550505050611b4f565b6000611aa9600183611aa4919061415a565b61268a565b915050600060018260ff166001901b611ac29190613d74565b1990506000818a1690506000811415945084611b0f57878360ff611ae691906141d1565b60ff16600186611af6919061415a565b611b00919061415a565b611b0a919061407d565b611b49565b8783611b1a836127cf565b611b2491906141d1565b60ff16600186611b34919061415a565b611b3e919061415a565b611b48919061407d565b5b95505050505b5094509492505050565b60008060008360020b12611b70578260020b611b7e565b8260020b611b7d906133b7565b5b90507ffffffffffffffffffffffffffffffffffffffffffffffffffffffffffff27618611baa90613c8b565b60020b811115611bef576040517f08c379a0000000000000000000000000000000000000000000000000000000008152600401611be690614251565b60405180910390fd5b600080600183161415611c1357700100000000000000000000000000000000611c25565b6ffffcb933bd6fad37aa2d162d1a5940015b70ffffffffffffffffffffffffffffffffff16905060006002831614611c685760806ffff97272373d413259a46990580e213a82611c639190614271565b901c90505b60006004831614611c965760806ffff2e50f5f656932ef12357cf3c7fdcc82611c919190614271565b901c90505b60006008831614611cc45760806fffe5caca7e10e4e61c3624eaa0941cd082611cbf9190614271565b901c90505b60006010831614611cf25760806fffcb9843d60f6159c9db58835c92664482611ced9190614271565b901c90505b60006020831614611d205760806fff973b41fa98c081472e6896dfb254c082611d1b9190614271565b901c90505b60006040831614611d4e5760806fff2ea16466c96a3843ec78b326b5286182611d499190614271565b901c90505b60006080831614611d7c5760806ffe5dee046a99a2a811c461f1969c305382611d779190614271565b901c90505b6000610100831614611dab5760806ffcbe86c7900a88aedcffc83b479aa3a482611da69190614271565b901c90505b6000610200831614611dda5760806ff987a7253ac413176f2b074cf7815e5482611dd59190614271565b901c90505b6000610400831614611e095760806ff3392b0822b70005940c7a398e4b70f382611e049190614271565b901c90505b6000610800831614611e385760806fe7159475a2c29b7443b29c7fa6e889d982611e339190614271565b901c90505b6000611000831614611e675760806fd097f3bdfd2022b8845ad8f792aa582582611e629190614271565b901c90505b6000612000831614611e965760806fa9f746462d870fdf8a65dc1f90e061e582611e919190614271565b901c90505b6000614000831614611ec55760806f70d869a156d2a1b890bb3df62baf32f782611ec09190614271565b901c90505b6000618000831614611ef45760806f31be135f97d08fd981231505542fcfa682611eef9190614271565b901c90505b600062010000831614611f245760806f09aa508b5b7a84e1c677de54f3e99bc982611f1f9190614271565b901c90505b600062020000831614611f535760806e5d6af8dedb81196699c329225ee60482611f4e9190614271565b901c90505b600062040000831614611f815760806d2216e584f5fa1ea926041bedfe9882611f7c9190614271565b901c90505b600062080000831614611fad5760806b048a170391f7dc42444e8fa282611fa89190614271565b901c90505b60008460020b1315611fe857807fffffffffffffffffffffffffffffffffffffffffffffffffffffffffffffffff611fe591906142cb565b90505b600064010000000082611ffb91906142fc565b1461200757600161200a565b60005b60ff16602082901c61201c9190613707565b92505050919050565b600080600080198587098587029250828110838203039150506000811415612060576000841161205457600080fd5b838204925050506121e9565b80841161206c57600080fd5b60008486880990508281118203915080830392506000856001877fffffffffffffffffffffffffffffffffffffffffffffffffffffffffffffffff6120b19190613d74565b6120bb9190613707565b16905080860495508084049350600181826000030401905080836120df9190614271565b84179350600060028760036120f49190614271565b18905080876121039190614271565b600261210f9190613d74565b8161211a9190614271565b905080876121289190614271565b60026121349190613d74565b8161213f9190614271565b9050808761214d9190614271565b60026121599190613d74565b816121649190614271565b905080876121729190614271565b600261217e9190613d74565b816121899190614271565b905080876121979190614271565b60026121a39190613d74565b816121ae9190614271565b905080876121bc9190614271565b60026121c89190613d74565b816121d39190614271565b905080856121e19190614271565b955050505050505b9392505050565b60008373ffffffffffffffffffffffffffffffffffffffff168573ffffffffffffffffffffffffffffffffffffffff16111561223157838580955081965050505b8161228657612281836fffffffffffffffffffffffffffffffff168686612258919061332f565b73ffffffffffffffffffffffffffffffffffffffff166c01000000000000000000000000612025565b6122d2565b6122d1836fffffffffffffffffffffffffffffffff1686866122a8919061332f565b73ffffffffffffffffffffffffffffffffffffffff166c0100000000000000000000000061261f565b5b9050949350505050565b60008373ffffffffffffffffffffffffffffffffffffffff168573ffffffffffffffffffffffffffffffffffffffff16111561231d57838580955081965050505b6000606060ff16846fffffffffffffffffffffffffffffffff16901b905060008686612349919061332f565b73ffffffffffffffffffffffffffffffffffffffff16905060008773ffffffffffffffffffffffffffffffffffffffff161161238457600080fd5b6000808314158015612397575060008214155b156123c55760fe6123a7836126ac565b60ff166123b3856126ac565b60ff166123c09190613707565b101590505b80156124a0578461243557612430612406876fffffffffffffffffffffffffffffffff16848a73ffffffffffffffffffffffffffffffffffffffff16612025565b6c010000000000000000000000008a73ffffffffffffffffffffffffffffffffffffffff16612025565b612496565b61249561246b876fffffffffffffffffffffffffffffffff16848a73ffffffffffffffffffffffffffffffffffffffff1661261f565b6c010000000000000000000000008a73ffffffffffffffffffffffffffffffffffffffff1661261f565b5b9350505050612533565b846124ec578773ffffffffffffffffffffffffffffffffffffffff166124dd84848a73ffffffffffffffffffffffffffffffffffffffff16612025565b6124e791906142cb565b61252d565b61252c61251084848a73ffffffffffffffffffffffffffffffffffffffff1661261f565b8973ffffffffffffffffffffffffffffffffffffffff1661293e565b5b93505050505b949350505050565b6000808573ffffffffffffffffffffffffffffffffffffffff161161255f57600080fd5b6000846fffffffffffffffffffffffffffffffff161161257e57600080fd5b81612595576125908585856001612951565b6125a3565b6125a28585856001612ace565b5b9050949350505050565b6000808573ffffffffffffffffffffffffffffffffffffffff16116125d157600080fd5b6000846fffffffffffffffffffffffffffffffff16116125f057600080fd5b81612607576126028585856000612ace565b612615565b6126148585856000612951565b5b9050949350505050565b600061262c848484612025565b90506000828061263f5761263e613ae8565b5b8486091115612683577fffffffffffffffffffffffffffffffffffffffffffffffffffffffffffffffff811061267457600080fd5b808061267f9061432d565b9150505b9392505050565b60008060088360020b901d9150610100836126a59190613bad565b9050915091565b60008082116126ba57600080fd5b70010000000000000000000000000000000082106126e957608082901c91506080816126e69190614376565b90505b68010000000000000000821061271057604082901c915060408161270d9190614376565b90505b640100000000821061273357602082901c91506020816127309190614376565b90505b62010000821061275457601082901c91506010816127519190614376565b90505b610100821061277457600882901c91506008816127719190614376565b90505b6010821061279357600482901c91506004816127909190614376565b90505b600482106127b257600282901c91506002816127af9190614376565b90505b600282106127ca576001816127c79190614376565b90505b919050565b60008082116127dd57600080fd5b60ff905060006fffffffffffffffffffffffffffffffff8016831611156128125760808161280b91906141d1565b905061281a565b608082901c91505b600067ffffffffffffffff8016831611156128435760408161283c91906141d1565b905061284b565b604082901c91505b600063ffffffff8016831611156128705760208161286991906141d1565b9050612878565b602082901c91505b600061ffff80168316111561289b5760108161289491906141d1565b90506128a3565b601082901c91505b600060ff8016831611156128c5576008816128be91906141d1565b90506128cd565b600882901c91505b6000600f831611156128ed576004816128e691906141d1565b90506128f5565b600482901c91505b60006003831611156129155760028161290e91906141d1565b905061291d565b600282901c91505b60006001831611156129395760018161293691906141d1565b90505b919050565b6000808284061182840401905092915050565b60008115612a0957600073ffffffffffffffffffffffffffffffffffffffff80168411156129a8576129a3846c01000000000000000000000000876fffffffffffffffffffffffffffffffff16612025565b6129ce565b846fffffffffffffffffffffffffffffffff16606060ff1685901b6129cd91906142cb565b5b9050612a016129fc828873ffffffffffffffffffffffffffffffffffffffff16612dac90919063ffffffff16565b612dcf565b915050612ac6565b600073ffffffffffffffffffffffffffffffffffffffff8016841115612a5857612a53846c01000000000000000000000000876fffffffffffffffffffffffffffffffff1661261f565b612a7c565b612a7b606060ff1685901b866fffffffffffffffffffffffffffffffff1661293e565b5b9050808673ffffffffffffffffffffffffffffffffffffffff1611612aa057600080fd5b808673ffffffffffffffffffffffffffffffffffffffff16612ac29190613d74565b9150505b949350505050565b600080831415612ae057849050612da4565b6000606060ff16856fffffffffffffffffffffffffffffffff16901b90506000808214158015612b27575060008773ffffffffffffffffffffffffffffffffffffffff1614155b15612b6b5760fe612b4d8873ffffffffffffffffffffffffffffffffffffffff166126ac565b60ff16612b59846126ac565b60ff16612b669190613707565b101590505b8315612ca95760008773ffffffffffffffffffffffffffffffffffffffff16868973ffffffffffffffffffffffffffffffffffffffff1688612bad9190614271565b925082612bba91906142cb565b1415612c625781612bcb5780612bff565b612bfe868973ffffffffffffffffffffffffffffffffffffffff16896fffffffffffffffffffffffffffffffff1661261f565b5b905081612c0c5782612c1b565b6c010000000000000000000000005b925060008184612c2b9190613707565b9050838110612c6057612c55848a73ffffffffffffffffffffffffffffffffffffffff168361261f565b945050505050612da4565b505b612c9f83612c9a888b73ffffffffffffffffffffffffffffffffffffffff1687612c8c91906142cb565b612dac90919063ffffffff16565b61293e565b9350505050612da4565b60008773ffffffffffffffffffffffffffffffffffffffff16868973ffffffffffffffffffffffffffffffffffffffff1688612ce59190614271565b925082612cf291906142cb565b148015612cfe57508083115b612d0757600080fd5b81612d125780612d46565b612d45868973ffffffffffffffffffffffffffffffffffffffff16896fffffffffffffffffffffffffffffffff1661261f565b5b905081612d535782612d62565b6c010000000000000000000000005b925060008184612d729190613d74565b9050612d9d612d98858b73ffffffffffffffffffffffffffffffffffffffff168461261f565b612dcf565b9450505050505b949350505050565b6000828284612dbb9190613707565b9150811015612dc957600080fd5b92915050565b6000818291508173ffffffffffffffffffffffffffffffffffffffff1614612df657600080fd5b919050565b6040518060c00160405280600073ffffffffffffffffffffffffffffffffffffffff168152602001600060020b8152602001600060020b8152602001600062ffffff16815260200160006fffffffffffffffffffffffffffffffff1681526020016000151581525090565b6040518060a001604052806000815260200160008152602001600073ffffffffffffffffffffffffffffffffffffffff168152602001600060020b815260200160006fffffffffffffffffffffffffffffffff1681525090565b6040518060e00160405280600073ffffffffffffffffffffffffffffffffffffffff168152602001600060020b8152602001600015158152602001600073ffffffffffffffffffffffffffffffffffffffff1681526020016000815260200160008152602001600081525090565b600080fd5b600073ffffffffffffffffffffffffffffffffffffffff82169050919050565b6000612f5e82612f33565b9050919050565b612f6e81612f53565b8114612f7957600080fd5b50565b600081359050612f8b81612f65565b92915050565b60008060408385031215612fa857612fa7612f2e565b5b6000612fb685828601612f7c565b9250506020612fc785828601612f7c565b9150509250929050565b60008115159050919050565b612fe681612fd1565b82525050565b60006020820190506130016000830184612fdd565b92915050565b6000819050919050565b61301a81613007565b811461302557600080fd5b50565b60008135905061303781613011565b92915050565b600062ffffff82169050919050565b6130558161303d565b811461306057600080fd5b50565b6000813590506130728161304c565b92915050565b6000806000806080858703121561309257613091612f2e565b5b60006130a087828801612f7c565b94505060206130b187828801612f7c565b93505060406130c287828801613028565b92505060606130d387828801613063565b91505092959194509250565b6130e881613007565b82525050565b600060208201905061310360008301846130df565b92915050565b61311281612f53565b82525050565b6000819050919050565b6000819050919050565b600061314761314261313d84613118565b613122565b61303d565b9050919050565b6131578161312c565b82525050565b60006060820190506131726000830186613109565b61317f6020830185613109565b61318c604083018461314e565b949350505050565b6000815190506131a381612f65565b92915050565b6000602082840312156131bf576131be612f2e565b5b60006131cd84828501613194565b91505092915050565b6000819050919050565b60006131fb6131f66131f1846131d6565b613122565b61303d565b9050919050565b61320b816131e0565b82525050565b60006060820190506132266000830186613109565b6132336020830185613109565b6132406040830184613202565b949350505050565b6000819050919050565b600061326d61326861326384613248565b613122565b61303d565b9050919050565b61327d81613252565b82525050565b60006060820190506132986000830186613109565b6132a56020830185613109565b6132b26040830184613274565b949350505050565b6132c38161303d565b82525050565b60006060820190506132de6000830186613109565b6132eb6020830185613109565b6132f860408301846132ba565b949350505050565b7f4e487b7100000000000000000000000000000000000000000000000000000000600052601160045260246000fd5b600061333a82612f33565b915061334583612f33565b92508282101561335857613357613300565b5b828203905092915050565b600061336e82612f33565b915061337983612f33565b92508273ffffffffffffffffffffffffffffffffffffffff038211156133a2576133a1613300565b5b828201905092915050565b6000819050919050565b60006133c2826133ad565b91507f80000000000000000000000000000000000000000000000000000000000000008214156133f5576133f4613300565b5b816000039050919050565b61340981612f33565b811461341457600080fd5b50565b60008151905061342681613400565b92915050565b60008160020b9050919050565b6134428161342c565b811461344d57600080fd5b50565b60008151905061345f81613439565b92915050565b600061ffff82169050919050565b61347c81613465565b811461348757600080fd5b50565b60008151905061349981613473565b92915050565b600060ff82169050919050565b6134b58161349f565b81146134c057600080fd5b50565b6000815190506134d2816134ac565b92915050565b6134e181612fd1565b81146134ec57600080fd5b50565b6000815190506134fe816134d8565b92915050565b600080600080600080600060e0888a03121561352357613522612f2e565b5b60006135318a828b01613417565b97505060206135428a828b01613450565b96505060406135538a828b0161348a565b95505060606135648a828b0161348a565b94505060806135758a828b0161348a565b93505060a06135868a828b016134c3565b92505060c06135978a828b016134ef565b91505092959891949750929550565b60006fffffffffffffffffffffffffffffffff82169050919050565b6135cb816135a6565b81146135d657600080fd5b50565b6000815190506135e8816135c2565b92915050565b60006020828403121561360457613603612f2e565b5b6000613612848285016135d9565b91505092915050565b60006020828403121561363157613630612f2e565b5b600061363f84828501613450565b91505092915050565b6000815190506136578161304c565b92915050565b60006020828403121561367357613672612f2e565b5b600061368184828501613648565b91505092915050565b600082825260208201905092915050565b7f53504c0000000000000000000000000000000000000000000000000000000000600082015250565b60006136d160038361368a565b91506136dc8261369b565b602082019050919050565b60006020820190508181036000830152613700816136c4565b9050919050565b600061371282613007565b915061371d83613007565b9250827fffffffffffffffffffffffffffffffffffffffffffffffffffffffffffffffff0382111561375257613751613300565b5b828201905092915050565b6000613768826133ad565b9150613773836133ad565b9250827f8000000000000000000000000000000000000000000000000000000000000000018212600084121516156137ae576137ad613300565b5b827f7fffffffffffffffffffffffffffffffffffffffffffffffffffffffffffffff0182136000841216156137e6576137e5613300565b5b828203905092915050565b60006137fc826133ad565b9150613807836133ad565b9250817f7fffffffffffffffffffffffffffffffffffffffffffffffffffffffffffffff0383136000831215161561384257613841613300565b5b817f800000000000000000000000000000000000000000000000000000000000000003831260008312161561387a57613879613300565b5b828201905092915050565b61388e8161342c565b82525050565b60006020820190506138a96000830184613885565b92915050565b600081600f0b9050919050565b6138c5816138af565b81146138d057600080fd5b50565b6000815190506138e2816138bc565b92915050565b6000815190506138f781613011565b92915050565b60008160060b9050919050565b613913816138fd565b811461391e57600080fd5b50565b6000815190506139308161390a565b92915050565b600063ffffffff82169050919050565b61394f81613936565b811461395a57600080fd5b50565b60008151905061396c81613946565b92915050565b600080600080600080600080610100898b03121561399357613992612f2e565b5b60006139a18b828c016135d9565b98505060206139b28b828c016138d3565b97505060406139c38b828c016138e8565b96505060606139d48b828c016138e8565b95505060806139e58b828c01613921565b94505060a06139f68b828c01613417565b93505060c0613a078b828c0161395d565b92505060e0613a188b828c016134ef565b9150509295985092959890939650565b6000613a33826138af565b91507fffffffffffffffffffffffffffffffff80000000000000000000000000000000821415613a6657613a65613300565b5b816000039050919050565b6000613a7c8261342c565b9150613a878361342c565b9250827fffffffffffffffffffffffffffffffffffffffffffffffffffffffffff80000001821260008412151615613ac257613ac1613300565b5b82627fffff018213600084121615613add57613adc613300565b5b828203905092915050565b7f4e487b7100000000000000000000000000000000000000000000000000000000600052601260045260246000fd5b6000613b228261342c565b9150613b2d8361342c565b925082613b3d57613b3c613ae8565b5b600160000383147fffffffffffffffffffffffffffffffffffffffffffffffffffffffffff80000083141615613b7657613b75613300565b5b828205905092915050565b6000613b8c8261342c565b9150627fffff821415613ba257613ba1613300565b5b600182019050919050565b6000613bb88261342c565b9150613bc38361342c565b925082613bd357613bd2613ae8565b5b828207905092915050565b6000613be98261342c565b91507fffffffffffffffffffffffffffffffffffffffffffffffffffffffffff800000821415613c1c57613c1b613300565b5b600182039050919050565b60008160010b9050919050565b613c3d81613c27565b82525050565b6000602082019050613c586000830184613c34565b92915050565b600060208284031215613c7457613c73612f2e565b5b6000613c82848285016138e8565b91505092915050565b6000613c968261342c565b91507fffffffffffffffffffffffffffffffffffffffffffffffffffffffffff800000821415613cc957613cc8613300565b5b816000039050919050565b7f5350440000000000000000000000000000000000000000000000000000000000600082015250565b6000613d0a60038361368a565b9150613d1582613cd4565b602082019050919050565b60006020820190508181036000830152613d3981613cfd565b9050919050565b6000613d4b8261303d565b9150613d568361303d565b925082821015613d6957613d68613300565b5b828203905092915050565b6000613d7f82613007565b9150613d8a83613007565b925082821015613d9d57613d9c613300565b5b828203905092915050565b6000613db3826135a6565b9150613dbe836135a6565b925082821015613dd157613dd0613300565b5b828203905092915050565b7f4c53000000000000000000000000000000000000000000000000000000000000600082015250565b6000613e1260028361368a565b9150613e1d82613ddc565b602082019050919050565b60006020820190508181036000830152613e4181613e05565b9050919050565b6000613e53826135a6565b9150613e5e836135a6565b9250826fffffffffffffffffffffffffffffffff03821115613e8357613e82613300565b5b828201905092915050565b7f4c41000000000000000000000000000000000000000000000000000000000000600082015250565b6000613ec460028361368a565b9150613ecf82613e8e565b602082019050919050565b60006020820190508181036000830152613ef381613eb7565b9050919050565b7f5200000000000000000000000000000000000000000000000000000000000000600082015250565b6000613f3060018361368a565b9150613f3b82613efa565b602082019050919050565b60006020820190508181036000830152613f5f81613f23565b9050919050565b6000613f71826133ad565b9150613f7c836133ad565b9250827f7fffffffffffffffffffffffffffffffffffffffffffffffffffffffffffffff0482116000841360008413161615613fbb57613fba613300565b5b817f80000000000000000000000000000000000000000000000000000000000000000583126000841260008413161615613ff857613ff7613300565b5b827f8000000000000000000000000000000000000000000000000000000000000000058212600084136000841216161561403557614034613300565b5b827f7fffffffffffffffffffffffffffffffffffffffffffffffffffffffffffffff058212600084126000841216161561407257614071613300565b5b828202905092915050565b60006140888261342c565b91506140938361342c565b925082627fffff04821160008413600084131616156140b5576140b4613300565b5b817fffffffffffffffffffffffffffffffffffffffffffffffffffffffffff80000005831260008412600084131616156140f2576140f1613300565b5b827fffffffffffffffffffffffffffffffffffffffffffffffffffffffffff800000058212600084136000841216161561412f5761412e613300565b5b82627fffff058212600084126000841216161561414f5761414e613300565b5b828202905092915050565b60006141658261342c565b91506141708361342c565b925081627fffff0383136000831215161561418e5761418d613300565b5b817fffffffffffffffffffffffffffffffffffffffffffffffffffffffffff8000000383126000831216156141c6576141c5613300565b5b828201905092915050565b60006141dc8261349f565b91506141e78361349f565b9250828210156141fa576141f9613300565b5b828203905092915050565b7f5400000000000000000000000000000000000000000000000000000000000000600082015250565b600061423b60018361368a565b915061424682614205565b602082019050919050565b6000602082019050818103600083015261426a8161422e565b9050919050565b600061427c82613007565b915061428783613007565b9250817fffffffffffffffffffffffffffffffffffffffffffffffffffffffffffffffff04831182151516156142c0576142bf613300565b5b828202905092915050565b60006142d682613007565b91506142e183613007565b9250826142f1576142f0613ae8565b5b828204905092915050565b600061430782613007565b915061431283613007565b92508261432257614321613ae8565b5b828206905092915050565b600061433882613007565b91507fffffffffffffffffffffffffffffffffffffffffffffffffffffffffffffffff82141561436b5761436a613300565b5b600182019050919050565b60006143818261349f565b915061438c8361349f565b92508260ff038211156143a2576143a1613300565b5b82820190509291505056fea26469706673582212207ae9cb37ffd0fbd0c96f470021e29926f8954a2785de7392abe993d2f158635964736f6c634300080c0033",
    "linkReferences": {},
    "deployedLinkReferences": {}
}